{
  "_format": "hh-sol-artifact-1",
  "contractName": "TokenRWA",
  "sourceName": "contracts/TokenRWA.sol",
  "abi": [
    {
      "inputs": [
        {
          "internalType": "address",
          "name": "owner",
          "type": "address"
        }
      ],
      "stateMutability": "nonpayable",
      "type": "constructor"
    },
    {
      "inputs": [
        {
          "internalType": "address",
          "name": "sender",
          "type": "address"
        },
        {
          "internalType": "uint256",
          "name": "tokenId",
          "type": "uint256"
        },
        {
          "internalType": "address",
          "name": "owner",
          "type": "address"
        }
      ],
      "name": "ERC721IncorrectOwner",
      "type": "error"
    },
    {
      "inputs": [
        {
          "internalType": "address",
          "name": "operator",
          "type": "address"
        },
        {
          "internalType": "uint256",
          "name": "tokenId",
          "type": "uint256"
        }
      ],
      "name": "ERC721InsufficientApproval",
      "type": "error"
    },
    {
      "inputs": [
        {
          "internalType": "address",
          "name": "approver",
          "type": "address"
        }
      ],
      "name": "ERC721InvalidApprover",
      "type": "error"
    },
    {
      "inputs": [
        {
          "internalType": "address",
          "name": "operator",
          "type": "address"
        }
      ],
      "name": "ERC721InvalidOperator",
      "type": "error"
    },
    {
      "inputs": [
        {
          "internalType": "address",
          "name": "owner",
          "type": "address"
        }
      ],
      "name": "ERC721InvalidOwner",
      "type": "error"
    },
    {
      "inputs": [
        {
          "internalType": "address",
          "name": "receiver",
          "type": "address"
        }
      ],
      "name": "ERC721InvalidReceiver",
      "type": "error"
    },
    {
      "inputs": [
        {
          "internalType": "address",
          "name": "sender",
          "type": "address"
        }
      ],
      "name": "ERC721InvalidSender",
      "type": "error"
    },
    {
      "inputs": [
        {
          "internalType": "uint256",
          "name": "tokenId",
          "type": "uint256"
        }
      ],
      "name": "ERC721NonexistentToken",
      "type": "error"
    },
    {
      "inputs": [
        {
          "internalType": "address",
          "name": "owner",
          "type": "address"
        }
      ],
      "name": "OwnableInvalidOwner",
      "type": "error"
    },
    {
      "inputs": [
        {
          "internalType": "address",
          "name": "account",
          "type": "address"
        }
      ],
      "name": "OwnableUnauthorizedAccount",
      "type": "error"
    },
    {
      "inputs": [],
      "name": "ReentrancyGuardReentrantCall",
      "type": "error"
    },
    {
      "anonymous": false,
      "inputs": [
        {
          "indexed": true,
          "internalType": "address",
          "name": "owner",
          "type": "address"
        },
        {
          "indexed": true,
          "internalType": "address",
          "name": "approved",
          "type": "address"
        },
        {
          "indexed": true,
          "internalType": "uint256",
          "name": "tokenId",
          "type": "uint256"
        }
      ],
      "name": "Approval",
      "type": "event"
    },
    {
      "anonymous": false,
      "inputs": [
        {
          "indexed": true,
          "internalType": "address",
          "name": "owner",
          "type": "address"
        },
        {
          "indexed": true,
          "internalType": "address",
          "name": "operator",
          "type": "address"
        },
        {
          "indexed": false,
          "internalType": "bool",
          "name": "approved",
          "type": "bool"
        }
      ],
      "name": "ApprovalForAll",
      "type": "event"
    },
    {
      "anonymous": false,
      "inputs": [
        {
          "indexed": true,
          "internalType": "address",
          "name": "previousOwner",
          "type": "address"
        },
        {
          "indexed": true,
          "internalType": "address",
          "name": "newOwner",
          "type": "address"
        }
      ],
      "name": "OwnershipTransferred",
      "type": "event"
    },
    {
      "anonymous": false,
      "inputs": [
        {
          "indexed": true,
          "internalType": "address",
          "name": "from",
          "type": "address"
        },
        {
          "indexed": true,
          "internalType": "address",
          "name": "to",
          "type": "address"
        },
        {
          "indexed": true,
          "internalType": "uint256",
          "name": "tokenId",
          "type": "uint256"
        }
      ],
      "name": "Transfer",
      "type": "event"
    },
    {
      "inputs": [],
      "name": "EARNEST_AMOUNT",
      "outputs": [
        {
          "internalType": "uint256",
          "name": "",
          "type": "uint256"
        }
      ],
      "stateMutability": "view",
      "type": "function"
    },
    {
      "inputs": [],
      "name": "PLOT_PRICE",
      "outputs": [
        {
          "internalType": "uint256",
          "name": "",
          "type": "uint256"
        }
      ],
      "stateMutability": "view",
      "type": "function"
    },
    {
      "inputs": [],
      "name": "TOTAL_SUPPLY",
      "outputs": [
        {
          "internalType": "uint256",
          "name": "",
          "type": "uint256"
        }
      ],
      "stateMutability": "view",
      "type": "function"
    },
    {
      "inputs": [
        {
          "internalType": "address",
          "name": "to",
          "type": "address"
        },
        {
          "internalType": "uint256",
          "name": "tokenId",
          "type": "uint256"
        }
      ],
      "name": "approve",
      "outputs": [],
      "stateMutability": "nonpayable",
      "type": "function"
    },
    {
      "inputs": [
        {
          "internalType": "uint256",
          "name": "tokenId",
          "type": "uint256"
        }
      ],
      "name": "approvePurchase",
      "outputs": [],
      "stateMutability": "nonpayable",
      "type": "function"
    },
    {
      "inputs": [
        {
          "internalType": "address",
          "name": "owner",
          "type": "address"
        }
      ],
      "name": "balanceOf",
      "outputs": [
        {
          "internalType": "uint256",
          "name": "",
          "type": "uint256"
        }
      ],
      "stateMutability": "view",
      "type": "function"
    },
    {
      "inputs": [
        {
          "internalType": "uint256",
          "name": "tokenId",
          "type": "uint256"
        }
      ],
      "name": "cancelPurchase",
      "outputs": [],
      "stateMutability": "nonpayable",
      "type": "function"
    },
    {
      "inputs": [
        {
          "internalType": "uint256",
          "name": "tokenId",
          "type": "uint256"
        }
      ],
      "name": "completePurchase",
      "outputs": [],
      "stateMutability": "payable",
      "type": "function"
    },
    {
      "inputs": [
        {
          "internalType": "uint256",
          "name": "",
          "type": "uint256"
        }
      ],
      "name": "escrows",
      "outputs": [
        {
          "internalType": "uint256",
          "name": "earnestPaid",
          "type": "uint256"
        },
        {
          "internalType": "uint256",
          "name": "remainingBalance",
          "type": "uint256"
        },
        {
          "internalType": "address",
          "name": "buyer",
          "type": "address"
        },
        {
          "internalType": "bool",
          "name": "isActive",
          "type": "bool"
        },
        {
          "internalType": "bool",
          "name": "isApproved",
          "type": "bool"
        }
      ],
      "stateMutability": "view",
      "type": "function"
    },
    {
      "inputs": [
        {
          "internalType": "uint256",
          "name": "tokenId",
          "type": "uint256"
        }
      ],
      "name": "getApproved",
      "outputs": [
        {
          "internalType": "address",
          "name": "",
          "type": "address"
        }
      ],
      "stateMutability": "view",
      "type": "function"
    },
    {
      "inputs": [
        {
          "internalType": "uint256",
          "name": "tokenId",
          "type": "uint256"
        }
      ],
      "name": "initiatePurchase",
      "outputs": [],
      "stateMutability": "payable",
      "type": "function"
    },
    {
      "inputs": [
        {
          "internalType": "address",
          "name": "owner",
          "type": "address"
        },
        {
          "internalType": "address",
          "name": "operator",
          "type": "address"
        }
      ],
      "name": "isApprovedForAll",
      "outputs": [
        {
          "internalType": "bool",
          "name": "",
          "type": "bool"
        }
      ],
      "stateMutability": "view",
      "type": "function"
    },
    {
      "inputs": [
        {
          "internalType": "uint256",
          "name": "tokenId",
          "type": "uint256"
        }
      ],
      "name": "isValidToken",
      "outputs": [
        {
          "internalType": "bool",
          "name": "",
          "type": "bool"
        }
      ],
      "stateMutability": "view",
      "type": "function"
    },
    {
      "inputs": [],
      "name": "name",
      "outputs": [
        {
          "internalType": "string",
          "name": "",
          "type": "string"
        }
      ],
      "stateMutability": "view",
      "type": "function"
    },
    {
      "inputs": [],
      "name": "owner",
      "outputs": [
        {
          "internalType": "address",
          "name": "",
          "type": "address"
        }
      ],
      "stateMutability": "view",
      "type": "function"
    },
    {
      "inputs": [
        {
          "internalType": "uint256",
          "name": "tokenId",
          "type": "uint256"
        }
      ],
      "name": "ownerOf",
      "outputs": [
        {
          "internalType": "address",
          "name": "",
          "type": "address"
        }
      ],
      "stateMutability": "view",
      "type": "function"
    },
    {
      "inputs": [],
      "name": "renounceOwnership",
      "outputs": [],
      "stateMutability": "nonpayable",
      "type": "function"
    },
    {
      "inputs": [
        {
          "internalType": "address",
          "name": "from",
          "type": "address"
        },
        {
          "internalType": "address",
          "name": "to",
          "type": "address"
        },
        {
          "internalType": "uint256",
          "name": "tokenId",
          "type": "uint256"
        }
      ],
      "name": "safeTransferFrom",
      "outputs": [],
      "stateMutability": "nonpayable",
      "type": "function"
    },
    {
      "inputs": [
        {
          "internalType": "address",
          "name": "from",
          "type": "address"
        },
        {
          "internalType": "address",
          "name": "to",
          "type": "address"
        },
        {
          "internalType": "uint256",
          "name": "tokenId",
          "type": "uint256"
        },
        {
          "internalType": "bytes",
          "name": "data",
          "type": "bytes"
        }
      ],
      "name": "safeTransferFrom",
      "outputs": [],
      "stateMutability": "nonpayable",
      "type": "function"
    },
    {
      "inputs": [],
      "name": "seller",
      "outputs": [
        {
          "internalType": "address",
          "name": "",
          "type": "address"
        }
      ],
      "stateMutability": "view",
      "type": "function"
    },
    {
      "inputs": [
        {
          "internalType": "address",
          "name": "operator",
          "type": "address"
        },
        {
          "internalType": "bool",
          "name": "approved",
          "type": "bool"
        }
      ],
      "name": "setApprovalForAll",
      "outputs": [],
      "stateMutability": "nonpayable",
      "type": "function"
    },
    {
      "inputs": [
        {
          "internalType": "bytes4",
          "name": "interfaceId",
          "type": "bytes4"
        }
      ],
      "name": "supportsInterface",
      "outputs": [
        {
          "internalType": "bool",
          "name": "",
          "type": "bool"
        }
      ],
      "stateMutability": "view",
      "type": "function"
    },
    {
      "inputs": [],
      "name": "symbol",
      "outputs": [
        {
          "internalType": "string",
          "name": "",
          "type": "string"
        }
      ],
      "stateMutability": "view",
      "type": "function"
    },
    {
      "inputs": [
        {
          "internalType": "uint256",
          "name": "tokenId",
          "type": "uint256"
        }
      ],
      "name": "tokenURI",
      "outputs": [
        {
          "internalType": "string",
          "name": "",
          "type": "string"
        }
      ],
      "stateMutability": "view",
      "type": "function"
    },
    {
      "inputs": [
        {
          "internalType": "address",
          "name": "from",
          "type": "address"
        },
        {
          "internalType": "address",
          "name": "to",
          "type": "address"
        },
        {
          "internalType": "uint256",
          "name": "tokenId",
          "type": "uint256"
        }
      ],
      "name": "transferFrom",
      "outputs": [],
      "stateMutability": "nonpayable",
      "type": "function"
    },
    {
      "inputs": [
        {
          "internalType": "address",
          "name": "newOwner",
          "type": "address"
        }
      ],
      "name": "transferOwnership",
      "outputs": [],
      "stateMutability": "nonpayable",
      "type": "function"
    }
  ],
  "bytecode": "0x608060405234801561001057600080fd5b5060405161476838038061476883398181016040528101906100329190610d7e565b806040518060400160405280600d81526020017f4c616e64506c6f74546f6b656e000000000000000000000000000000000000008152506040518060400160405280600381526020017f4c5054000000000000000000000000000000000000000000000000000000000081525081600090816100ae9190610ffb565b5080600190816100be9190610ffb565b5050506001600681905550600073ffffffffffffffffffffffffffffffffffffffff168173ffffffffffffffffffffffffffffffffffffffff160361013b5760006040517f1e4fbdf700000000000000000000000000000000000000000000000000000000815260040161013291906110dc565b60405180910390fd5b61014a8161021360201b60201c565b5080600a60006101000a81548173ffffffffffffffffffffffffffffffffffffffff021916908373ffffffffffffffffffffffffffffffffffffffff1602179055506000600190505b6064811161020c576101cd600a60009054906101000a900473ffffffffffffffffffffffffffffffffffffffff16826102d960201b60201c565b60016009600083815260200190815260200160002060006101000a81548160ff021916908315150217905550808061020490611126565b915050610193565b5050611322565b6000600760009054906101000a900473ffffffffffffffffffffffffffffffffffffffff16905081600760006101000a81548173ffffffffffffffffffffffffffffffffffffffff021916908373ffffffffffffffffffffffffffffffffffffffff1602179055508173ffffffffffffffffffffffffffffffffffffffff168173ffffffffffffffffffffffffffffffffffffffff167f8be0079c531659141344cd1fd0a4f28419497f9722a3daafe3b4186f6b6457e060405160405180910390a35050565b6102f98282604051806020016040528060008152506102fd60201b60201c565b5050565b61030d838361033360201b60201c565b61032e61031e61043260201b60201c565b600085858561043a60201b60201c565b505050565b600073ffffffffffffffffffffffffffffffffffffffff168273ffffffffffffffffffffffffffffffffffffffff16036103a55760006040517f64a0ae9200000000000000000000000000000000000000000000000000000000815260040161039c91906110dc565b60405180910390fd5b60006103b9838360006105eb60201b60201c565b9050600073ffffffffffffffffffffffffffffffffffffffff168173ffffffffffffffffffffffffffffffffffffffff161461042d5760006040517f73c6ac6e00000000000000000000000000000000000000000000000000000000815260040161042491906110dc565b60405180910390fd5b505050565b600033905090565b60008373ffffffffffffffffffffffffffffffffffffffff163b11156105e4578273ffffffffffffffffffffffffffffffffffffffff1663150b7a02868685856040518563ffffffff1660e01b8152600401610499949392919061120d565b6020604051808303816000875af19250505080156104d557506040513d601f19601f820116820180604052508101906104d291906112b1565b60015b610559573d8060008114610505576040519150601f19603f3d011682016040523d82523d6000602084013e61050a565b606091505b50600081510361055157836040517f64a0ae9200000000000000000000000000000000000000000000000000000000815260040161054891906110dc565b60405180910390fd5b805181602001fd5b63150b7a0260e01b7bffffffffffffffffffffffffffffffffffffffffffffffffffffffff1916817bffffffffffffffffffffffffffffffffffffffffffffffffffffffff1916146105e257836040517f64a0ae920000000000000000000000000000000000000000000000000000000081526004016105d991906110dc565b60405180910390fd5b505b5050505050565b6000806105fd8461081760201b60201c565b9050600073ffffffffffffffffffffffffffffffffffffffff168373ffffffffffffffffffffffffffffffffffffffff16146106455761064481848661085460201b60201c565b5b600073ffffffffffffffffffffffffffffffffffffffff168173ffffffffffffffffffffffffffffffffffffffff16146106dc5761068d60008560008061091e60201b60201c565b6001600360008373ffffffffffffffffffffffffffffffffffffffff1673ffffffffffffffffffffffffffffffffffffffff168152602001908152602001600020600082825403925050819055505b600073ffffffffffffffffffffffffffffffffffffffff168573ffffffffffffffffffffffffffffffffffffffff161461075f576001600360008773ffffffffffffffffffffffffffffffffffffffff1673ffffffffffffffffffffffffffffffffffffffff168152602001908152602001600020600082825401925050819055505b846002600086815260200190815260200160002060006101000a81548173ffffffffffffffffffffffffffffffffffffffff021916908373ffffffffffffffffffffffffffffffffffffffff160217905550838573ffffffffffffffffffffffffffffffffffffffff168273ffffffffffffffffffffffffffffffffffffffff167fddf252ad1be2c89b69c2b068fc378daa952ba7f163c4a11628f55a4df523b3ef60405160405180910390a4809150509392505050565b60006002600083815260200190815260200160002060009054906101000a900473ffffffffffffffffffffffffffffffffffffffff169050919050565b610865838383610aef60201b60201c565b61091957600073ffffffffffffffffffffffffffffffffffffffff168373ffffffffffffffffffffffffffffffffffffffff16036108da57806040517f7e2732890000000000000000000000000000000000000000000000000000000081526004016108d191906112de565b60405180910390fd5b81816040517f177e802f0000000000000000000000000000000000000000000000000000000081526004016109109291906112f9565b60405180910390fd5b505050565b80806109575750600073ffffffffffffffffffffffffffffffffffffffff168273ffffffffffffffffffffffffffffffffffffffff1614155b15610a9757600061096d84610bbc60201b60201c565b9050600073ffffffffffffffffffffffffffffffffffffffff168373ffffffffffffffffffffffffffffffffffffffff16141580156109d857508273ffffffffffffffffffffffffffffffffffffffff168173ffffffffffffffffffffffffffffffffffffffff1614155b80156109f157506109ef8184610c4a60201b60201c565b155b15610a3357826040517fa9fbf51f000000000000000000000000000000000000000000000000000000008152600401610a2a91906110dc565b60405180910390fd5b8115610a9557838573ffffffffffffffffffffffffffffffffffffffff168273ffffffffffffffffffffffffffffffffffffffff167f8c5be1e5ebec7d5bd14f71427d1e84f3dd0314c0f7b2291e5b200ac8c7c3b92560405160405180910390a45b505b836004600085815260200190815260200160002060006101000a81548173ffffffffffffffffffffffffffffffffffffffff021916908373ffffffffffffffffffffffffffffffffffffffff16021790555050505050565b60008073ffffffffffffffffffffffffffffffffffffffff168373ffffffffffffffffffffffffffffffffffffffff1614158015610bb357508273ffffffffffffffffffffffffffffffffffffffff168473ffffffffffffffffffffffffffffffffffffffff161480610b6e5750610b6d8484610c4a60201b60201c565b5b80610bb257508273ffffffffffffffffffffffffffffffffffffffff16610b9a83610cde60201b60201c565b73ffffffffffffffffffffffffffffffffffffffff16145b5b90509392505050565b600080610bce8361081760201b60201c565b9050600073ffffffffffffffffffffffffffffffffffffffff168173ffffffffffffffffffffffffffffffffffffffff1603610c4157826040517f7e273289000000000000000000000000000000000000000000000000000000008152600401610c3891906112de565b60405180910390fd5b80915050919050565b6000600560008473ffffffffffffffffffffffffffffffffffffffff1673ffffffffffffffffffffffffffffffffffffffff16815260200190815260200160002060008373ffffffffffffffffffffffffffffffffffffffff1673ffffffffffffffffffffffffffffffffffffffff16815260200190815260200160002060009054906101000a900460ff16905092915050565b60006004600083815260200190815260200160002060009054906101000a900473ffffffffffffffffffffffffffffffffffffffff169050919050565b600080fd5b600073ffffffffffffffffffffffffffffffffffffffff82169050919050565b6000610d4b82610d20565b9050919050565b610d5b81610d40565b8114610d6657600080fd5b50565b600081519050610d7881610d52565b92915050565b600060208284031215610d9457610d93610d1b565b5b6000610da284828501610d69565b91505092915050565b600081519050919050565b7f4e487b7100000000000000000000000000000000000000000000000000000000600052604160045260246000fd5b7f4e487b7100000000000000000000000000000000000000000000000000000000600052602260045260246000fd5b60006002820490506001821680610e2c57607f821691505b602082108103610e3f57610e3e610de5565b5b50919050565b60008190508160005260206000209050919050565b60006020601f8301049050919050565b600082821b905092915050565b600060088302610ea77fffffffffffffffffffffffffffffffffffffffffffffffffffffffffffffffff82610e6a565b610eb18683610e6a565b95508019841693508086168417925050509392505050565b6000819050919050565b6000819050919050565b6000610ef8610ef3610eee84610ec9565b610ed3565b610ec9565b9050919050565b6000819050919050565b610f1283610edd565b610f26610f1e82610eff565b848454610e77565b825550505050565b600090565b610f3b610f2e565b610f46818484610f09565b505050565b5b81811015610f6a57610f5f600082610f33565b600181019050610f4c565b5050565b601f821115610faf57610f8081610e45565b610f8984610e5a565b81016020851015610f98578190505b610fac610fa485610e5a565b830182610f4b565b50505b505050565b600082821c905092915050565b6000610fd260001984600802610fb4565b1980831691505092915050565b6000610feb8383610fc1565b9150826002028217905092915050565b61100482610dab565b67ffffffffffffffff81111561101d5761101c610db6565b5b6110278254610e14565b611032828285610f6e565b600060209050601f8311600181146110655760008415611053578287015190505b61105d8582610fdf565b8655506110c5565b601f19841661107386610e45565b60005b8281101561109b57848901518255600182019150602085019450602081019050611076565b868310156110b857848901516110b4601f891682610fc1565b8355505b6001600288020188555050505b505050505050565b6110d681610d40565b82525050565b60006020820190506110f160008301846110cd565b92915050565b7f4e487b7100000000000000000000000000000000000000000000000000000000600052601160045260246000fd5b600061113182610ec9565b91507fffffffffffffffffffffffffffffffffffffffffffffffffffffffffffffffff8203611163576111626110f7565b5b600182019050919050565b61117781610ec9565b82525050565b600081519050919050565b600082825260208201905092915050565b60005b838110156111b757808201518184015260208101905061119c565b60008484015250505050565b6000601f19601f8301169050919050565b60006111df8261117d565b6111e98185611188565b93506111f9818560208601611199565b611202816111c3565b840191505092915050565b600060808201905061122260008301876110cd565b61122f60208301866110cd565b61123c604083018561116e565b818103606083015261124e81846111d4565b905095945050505050565b60007fffffffff0000000000000000000000000000000000000000000000000000000082169050919050565b61128e81611259565b811461129957600080fd5b50565b6000815190506112ab81611285565b92915050565b6000602082840312156112c7576112c6610d1b565b5b60006112d58482850161129c565b91505092915050565b60006020820190506112f3600083018461116e565b92915050565b600060408201905061130e60008301856110cd565b61131b602083018461116e565b9392505050565b613437806113316000396000f3fe6080604052600436106101815760003560e01c8063860fc78b116100d1578063b88d4fde1161008a578063c87b56dd11610064578063c87b56dd14610577578063dd142be0146105b4578063e985e9c5146105d0578063f2fde38b1461060d57610181565b8063b88d4fde14610509578063bfeee90d14610532578063c3634ddc1461054e57610181565b8063860fc78b146103f95780638da5cb5b14610436578063902d55a51461046157806395d89b411461048c578063a22cb465146104b7578063b37b53f7146104e057610181565b806323b872dd1161013e578063549fc51911610118578063549fc5191461033d5780636352211e1461036857806370a08231146103a5578063715018a6146103e257610181565b806323b872dd146102c057806326889ac6146102e957806342842e0e1461031457610181565b8063012f52ee1461018657806301ffc9a7146101c757806306fdde0314610204578063081812fc1461022f57806308551a531461026c578063095ea7b314610297575b600080fd5b34801561019257600080fd5b506101ad60048036038101906101a891906126ab565b610636565b6040516101be959493929190612743565b60405180910390f35b3480156101d357600080fd5b506101ee60048036038101906101e991906127ee565b6106a6565b6040516101fb919061281b565b60405180910390f35b34801561021057600080fd5b50610219610788565b60405161022691906128c6565b60405180910390f35b34801561023b57600080fd5b50610256600480360381019061025191906126ab565b61081a565b60405161026391906128e8565b60405180910390f35b34801561027857600080fd5b50610281610836565b60405161028e91906128e8565b60405180910390f35b3480156102a357600080fd5b506102be60048036038101906102b9919061292f565b61085c565b005b3480156102cc57600080fd5b506102e760048036038101906102e2919061296f565b610872565b005b3480156102f557600080fd5b506102fe610974565b60405161030b91906129c2565b60405180910390f35b34801561032057600080fd5b5061033b6004803603810190610336919061296f565b610980565b005b34801561034957600080fd5b506103526109a0565b60405161035f91906129c2565b60405180910390f35b34801561037457600080fd5b5061038f600480360381019061038a91906126ab565b6109ab565b60405161039c91906128e8565b60405180910390f35b3480156103b157600080fd5b506103cc60048036038101906103c791906129dd565b6109bd565b6040516103d991906129c2565b60405180910390f35b3480156103ee57600080fd5b506103f7610a77565b005b34801561040557600080fd5b50610420600480360381019061041b91906126ab565b610a8b565b60405161042d919061281b565b60405180910390f35b34801561044257600080fd5b5061044b610acd565b60405161045891906128e8565b60405180910390f35b34801561046d57600080fd5b50610476610af7565b60405161048391906129c2565b60405180910390f35b34801561049857600080fd5b506104a1610afc565b6040516104ae91906128c6565b60405180910390f35b3480156104c357600080fd5b506104de60048036038101906104d99190612a36565b610b8e565b005b3480156104ec57600080fd5b50610507600480360381019061050291906126ab565b610ba4565b005b34801561051557600080fd5b50610530600480360381019061052b9190612bab565b610ccf565b005b61054c600480360381019061054791906126ab565b610cf4565b005b34801561055a57600080fd5b50610575600480360381019061057091906126ab565b61103c565b005b34801561058357600080fd5b5061059e600480360381019061059991906126ab565b6112eb565b6040516105ab91906128c6565b60405180910390f35b6105ce60048036038101906105c991906126ab565b611354565b005b3480156105dc57600080fd5b506105f760048036038101906105f29190612c2e565b6115fb565b604051610604919061281b565b60405180910390f35b34801561061957600080fd5b50610634600480360381019061062f91906129dd565b61168f565b005b60086020528060005260406000206000915090508060000154908060010154908060020160009054906101000a900473ffffffffffffffffffffffffffffffffffffffff16908060020160149054906101000a900460ff16908060020160159054906101000a900460ff16905085565b60007f80ac58cd000000000000000000000000000000000000000000000000000000007bffffffffffffffffffffffffffffffffffffffffffffffffffffffff1916827bffffffffffffffffffffffffffffffffffffffffffffffffffffffff1916148061077157507f5b5e139f000000000000000000000000000000000000000000000000000000007bffffffffffffffffffffffffffffffffffffffffffffffffffffffff1916827bffffffffffffffffffffffffffffffffffffffffffffffffffffffff1916145b80610781575061078082611715565b5b9050919050565b60606000805461079790612c9d565b80601f01602080910402602001604051908101604052809291908181526020018280546107c390612c9d565b80156108105780601f106107e557610100808354040283529160200191610810565b820191906000526020600020905b8154815290600101906020018083116107f357829003601f168201915b5050505050905090565b60006108258261177f565b5061082f82611807565b9050919050565b600a60009054906101000a900473ffffffffffffffffffffffffffffffffffffffff1681565b61086e8282610869611844565b61184c565b5050565b600073ffffffffffffffffffffffffffffffffffffffff168273ffffffffffffffffffffffffffffffffffffffff16036108e45760006040517f64a0ae920000000000000000000000000000000000000000000000000000000081526004016108db91906128e8565b60405180910390fd5b60006108f883836108f3611844565b61185e565b90508373ffffffffffffffffffffffffffffffffffffffff168173ffffffffffffffffffffffffffffffffffffffff161461096e578382826040517f64283d7b00000000000000000000000000000000000000000000000000000000815260040161096593929190612cce565b60405180910390fd5b50505050565b67016345785d8a000081565b61099b83838360405180602001604052806000815250610ccf565b505050565b66470de4df82000081565b60006109b68261177f565b9050919050565b60008073ffffffffffffffffffffffffffffffffffffffff168273ffffffffffffffffffffffffffffffffffffffff1603610a305760006040517f89c62b64000000000000000000000000000000000000000000000000000000008152600401610a2791906128e8565b60405180910390fd5b600360008373ffffffffffffffffffffffffffffffffffffffff1673ffffffffffffffffffffffffffffffffffffffff168152602001908152602001600020549050919050565b610a7f611a78565b610a896000611aff565b565b60008082118015610a9d575060648211155b8015610ac657506009600083815260200190815260200160002060009054906101000a900460ff165b9050919050565b6000600760009054906101000a900473ffffffffffffffffffffffffffffffffffffffff16905090565b606481565b606060018054610b0b90612c9d565b80601f0160208091040260200160405190810160405280929190818152602001828054610b3790612c9d565b8015610b845780601f10610b5957610100808354040283529160200191610b84565b820191906000526020600020905b815481529060010190602001808311610b6757829003601f168201915b5050505050905090565b610ba0610b99611844565b8383611bc5565b5050565b610bac611a78565b610bb581610a8b565b610bf4576040517f08c379a0000000000000000000000000000000000000000000000000000000008152600401610beb90612d51565b60405180910390fd5b60006008600083815260200190815260200160002090508060020160149054906101000a900460ff16610c5c576040517f08c379a0000000000000000000000000000000000000000000000000000000008152600401610c5390612dbd565b60405180910390fd5b8060020160159054906101000a900460ff1615610cae576040517f08c379a0000000000000000000000000000000000000000000000000000000008152600401610ca590612e29565b60405180910390fd5b60018160020160156101000a81548160ff0219169083151502179055505050565b610cda848484610872565b610cee610ce5611844565b85858585611d34565b50505050565b610cfc611ee5565b610d0581610a8b565b610d44576040517f08c379a0000000000000000000000000000000000000000000000000000000008152600401610d3b90612d51565b60405180910390fd5b60006008600083815260200190815260200160002090508060020160149054906101000a900460ff16610dac576040517f08c379a0000000000000000000000000000000000000000000000000000000008152600401610da390612dbd565b60405180910390fd5b8060020160159054906101000a900460ff16610dfd576040517f08c379a0000000000000000000000000000000000000000000000000000000008152600401610df490612e95565b60405180910390fd5b3373ffffffffffffffffffffffffffffffffffffffff168160020160009054906101000a900473ffffffffffffffffffffffffffffffffffffffff1673ffffffffffffffffffffffffffffffffffffffff1614610e8f576040517f08c379a0000000000000000000000000000000000000000000000000000000008152600401610e8690612f01565b60405180910390fd5b80600101543414610ed5576040517f08c379a0000000000000000000000000000000000000000000000000000000008152600401610ecc90612f6d565b60405180910390fd5b60008160020160146101000a81548160ff021916908315150217905550610f43600a60009054906101000a900473ffffffffffffffffffffffffffffffffffffffff168260020160009054906101000a900473ffffffffffffffffffffffffffffffffffffffff1684611f2b565b600a60009054906101000a900473ffffffffffffffffffffffffffffffffffffffff1673ffffffffffffffffffffffffffffffffffffffff166108fc348360000154610f8f9190612fbc565b9081150290604051600060405180830381858888f19350505050158015610fba573d6000803e3d6000fd5b506008600083815260200190815260200160002060008082016000905560018201600090556002820160006101000a81549073ffffffffffffffffffffffffffffffffffffffff02191690556002820160146101000a81549060ff02191690556002820160156101000a81549060ff0219169055505050611039612098565b50565b611044611ee5565b61104d81610a8b565b61108c576040517f08c379a000000000000000000000000000000000000000000000000000000000815260040161108390612d51565b60405180910390fd5b60006008600083815260200190815260200160002090508060020160149054906101000a900460ff166110f4576040517f08c379a00000000000000000000000000000000000000000000000000000000081526004016110eb9061303c565b60405180910390fd5b3373ffffffffffffffffffffffffffffffffffffffff168160020160009054906101000a900473ffffffffffffffffffffffffffffffffffffffff1673ffffffffffffffffffffffffffffffffffffffff16148061119f5750600a60009054906101000a900473ffffffffffffffffffffffffffffffffffffffff1673ffffffffffffffffffffffffffffffffffffffff163373ffffffffffffffffffffffffffffffffffffffff16145b6111de576040517f08c379a00000000000000000000000000000000000000000000000000000000081526004016111d5906130a8565b60405180910390fd5b60008160020160146101000a81548160ff0219169083151502179055508060020160009054906101000a900473ffffffffffffffffffffffffffffffffffffffff1673ffffffffffffffffffffffffffffffffffffffff166108fc82600001549081150290604051600060405180830381858888f19350505050158015611269573d6000803e3d6000fd5b506008600083815260200190815260200160002060008082016000905560018201600090556002820160006101000a81549073ffffffffffffffffffffffffffffffffffffffff02191690556002820160146101000a81549060ff02191690556002820160156101000a81549060ff02191690555050506112e8612098565b50565b60606112f68261177f565b5060006113016120a2565b90506000815111611321576040518060200160405280600081525061134c565b8061132b846120b9565b60405160200161133c929190613104565b6040516020818303038152906040525b915050919050565b61135c611ee5565b61136581610a8b565b6113a4576040517f08c379a000000000000000000000000000000000000000000000000000000000815260040161139b90612d51565b60405180910390fd5b600a60009054906101000a900473ffffffffffffffffffffffffffffffffffffffff1673ffffffffffffffffffffffffffffffffffffffff166113e6826109ab565b73ffffffffffffffffffffffffffffffffffffffff161461143c576040517f08c379a000000000000000000000000000000000000000000000000000000000815260040161143390613174565b60405180910390fd5b66470de4df8200003414611485576040517f08c379a000000000000000000000000000000000000000000000000000000000815260040161147c906131e0565b60405180910390fd5b6008600082815260200190815260200160002060020160149054906101000a900460ff16156114e9576040517f08c379a00000000000000000000000000000000000000000000000000000000081526004016114e090613272565b60405180910390fd5b6040518060a001604052803481526020013467016345785d8a000061150e9190613292565b81526020013373ffffffffffffffffffffffffffffffffffffffff1681526020016001151581526020016000151581525060086000838152602001908152602001600020600082015181600001556020820151816001015560408201518160020160006101000a81548173ffffffffffffffffffffffffffffffffffffffff021916908373ffffffffffffffffffffffffffffffffffffffff16021790555060608201518160020160146101000a81548160ff02191690831515021790555060808201518160020160156101000a81548160ff0219169083151502179055509050506115f8612098565b50565b6000600560008473ffffffffffffffffffffffffffffffffffffffff1673ffffffffffffffffffffffffffffffffffffffff16815260200190815260200160002060008373ffffffffffffffffffffffffffffffffffffffff1673ffffffffffffffffffffffffffffffffffffffff16815260200190815260200160002060009054906101000a900460ff16905092915050565b611697611a78565b600073ffffffffffffffffffffffffffffffffffffffff168173ffffffffffffffffffffffffffffffffffffffff16036117095760006040517f1e4fbdf700000000000000000000000000000000000000000000000000000000815260040161170091906128e8565b60405180910390fd5b61171281611aff565b50565b60007f01ffc9a7000000000000000000000000000000000000000000000000000000007bffffffffffffffffffffffffffffffffffffffffffffffffffffffff1916827bffffffffffffffffffffffffffffffffffffffffffffffffffffffff1916149050919050565b60008061178b83612187565b9050600073ffffffffffffffffffffffffffffffffffffffff168173ffffffffffffffffffffffffffffffffffffffff16036117fe57826040517f7e2732890000000000000000000000000000000000000000000000000000000081526004016117f591906129c2565b60405180910390fd5b80915050919050565b60006004600083815260200190815260200160002060009054906101000a900473ffffffffffffffffffffffffffffffffffffffff169050919050565b600033905090565b61185983838360016121c4565b505050565b60008061186a84612187565b9050600073ffffffffffffffffffffffffffffffffffffffff168373ffffffffffffffffffffffffffffffffffffffff16146118ac576118ab818486612389565b5b600073ffffffffffffffffffffffffffffffffffffffff168173ffffffffffffffffffffffffffffffffffffffff161461193d576118ee6000856000806121c4565b6001600360008373ffffffffffffffffffffffffffffffffffffffff1673ffffffffffffffffffffffffffffffffffffffff168152602001908152602001600020600082825403925050819055505b600073ffffffffffffffffffffffffffffffffffffffff168573ffffffffffffffffffffffffffffffffffffffff16146119c0576001600360008773ffffffffffffffffffffffffffffffffffffffff1673ffffffffffffffffffffffffffffffffffffffff168152602001908152602001600020600082825401925050819055505b846002600086815260200190815260200160002060006101000a81548173ffffffffffffffffffffffffffffffffffffffff021916908373ffffffffffffffffffffffffffffffffffffffff160217905550838573ffffffffffffffffffffffffffffffffffffffff168273ffffffffffffffffffffffffffffffffffffffff167fddf252ad1be2c89b69c2b068fc378daa952ba7f163c4a11628f55a4df523b3ef60405160405180910390a4809150509392505050565b611a80611844565b73ffffffffffffffffffffffffffffffffffffffff16611a9e610acd565b73ffffffffffffffffffffffffffffffffffffffff1614611afd57611ac1611844565b6040517f118cdaa7000000000000000000000000000000000000000000000000000000008152600401611af491906128e8565b60405180910390fd5b565b6000600760009054906101000a900473ffffffffffffffffffffffffffffffffffffffff16905081600760006101000a81548173ffffffffffffffffffffffffffffffffffffffff021916908373ffffffffffffffffffffffffffffffffffffffff1602179055508173ffffffffffffffffffffffffffffffffffffffff168173ffffffffffffffffffffffffffffffffffffffff167f8be0079c531659141344cd1fd0a4f28419497f9722a3daafe3b4186f6b6457e060405160405180910390a35050565b600073ffffffffffffffffffffffffffffffffffffffff168273ffffffffffffffffffffffffffffffffffffffff1603611c3657816040517f5b08ba18000000000000000000000000000000000000000000000000000000008152600401611c2d91906128e8565b60405180910390fd5b80600560008573ffffffffffffffffffffffffffffffffffffffff1673ffffffffffffffffffffffffffffffffffffffff16815260200190815260200160002060008473ffffffffffffffffffffffffffffffffffffffff1673ffffffffffffffffffffffffffffffffffffffff16815260200190815260200160002060006101000a81548160ff0219169083151502179055508173ffffffffffffffffffffffffffffffffffffffff168373ffffffffffffffffffffffffffffffffffffffff167f17307eab39ab6107e8899845ad3d59bd9653f200f220920489ca2b5937696c3183604051611d27919061281b565b60405180910390a3505050565b60008373ffffffffffffffffffffffffffffffffffffffff163b1115611ede578273ffffffffffffffffffffffffffffffffffffffff1663150b7a02868685856040518563ffffffff1660e01b8152600401611d93949392919061331b565b6020604051808303816000875af1925050508015611dcf57506040513d601f19601f82011682018060405250810190611dcc919061337c565b60015b611e53573d8060008114611dff576040519150601f19603f3d011682016040523d82523d6000602084013e611e04565b606091505b506000815103611e4b57836040517f64a0ae92000000000000000000000000000000000000000000000000000000008152600401611e4291906128e8565b60405180910390fd5b805181602001fd5b63150b7a0260e01b7bffffffffffffffffffffffffffffffffffffffffffffffffffffffff1916817bffffffffffffffffffffffffffffffffffffffffffffffffffffffff191614611edc57836040517f64a0ae92000000000000000000000000000000000000000000000000000000008152600401611ed391906128e8565b60405180910390fd5b505b5050505050565b600260065403611f21576040517f3ee5aeb500000000000000000000000000000000000000000000000000000000815260040160405180910390fd5b6002600681905550565b600073ffffffffffffffffffffffffffffffffffffffff168273ffffffffffffffffffffffffffffffffffffffff1603611f9d5760006040517f64a0ae92000000000000000000000000000000000000000000000000000000008152600401611f9491906128e8565b60405180910390fd5b6000611fab8383600061185e565b9050600073ffffffffffffffffffffffffffffffffffffffff168173ffffffffffffffffffffffffffffffffffffffff160361201e57816040517f7e27328900000000000000000000000000000000000000000000000000000000815260040161201591906129c2565b60405180910390fd5b8373ffffffffffffffffffffffffffffffffffffffff168173ffffffffffffffffffffffffffffffffffffffff1614612092578382826040517f64283d7b00000000000000000000000000000000000000000000000000000000815260040161208993929190612cce565b60405180910390fd5b50505050565b6001600681905550565b606060405180602001604052806000815250905090565b6060600060016120c88461244d565b01905060008167ffffffffffffffff8111156120e7576120e6612a80565b5b6040519080825280601f01601f1916602001820160405280156121195781602001600182028036833780820191505090505b509050600082602001820190505b60011561217c578080600190039150507f3031323334353637383961626364656600000000000000000000000000000000600a86061a8153600a85816121705761216f6133a9565b5b04945060008503612127575b819350505050919050565b60006002600083815260200190815260200160002060009054906101000a900473ffffffffffffffffffffffffffffffffffffffff169050919050565b80806121fd5750600073ffffffffffffffffffffffffffffffffffffffff168273ffffffffffffffffffffffffffffffffffffffff1614155b1561233157600061220d8461177f565b9050600073ffffffffffffffffffffffffffffffffffffffff168373ffffffffffffffffffffffffffffffffffffffff161415801561227857508273ffffffffffffffffffffffffffffffffffffffff168173ffffffffffffffffffffffffffffffffffffffff1614155b801561228b575061228981846115fb565b155b156122cd57826040517fa9fbf51f0000000000000000000000000000000000000000000000000000000081526004016122c491906128e8565b60405180910390fd5b811561232f57838573ffffffffffffffffffffffffffffffffffffffff168273ffffffffffffffffffffffffffffffffffffffff167f8c5be1e5ebec7d5bd14f71427d1e84f3dd0314c0f7b2291e5b200ac8c7c3b92560405160405180910390a45b505b836004600085815260200190815260200160002060006101000a81548173ffffffffffffffffffffffffffffffffffffffff021916908373ffffffffffffffffffffffffffffffffffffffff16021790555050505050565b6123948383836125a0565b61244857600073ffffffffffffffffffffffffffffffffffffffff168373ffffffffffffffffffffffffffffffffffffffff160361240957806040517f7e27328900000000000000000000000000000000000000000000000000000000815260040161240091906129c2565b60405180910390fd5b81816040517f177e802f00000000000000000000000000000000000000000000000000000000815260040161243f9291906133d8565b60405180910390fd5b505050565b600080600090507a184f03e93ff9f4daa797ed6e38ed64bf6a1f01000000000000000083106124ab577a184f03e93ff9f4daa797ed6e38ed64bf6a1f01000000000000000083816124a1576124a06133a9565b5b0492506040810190505b6d04ee2d6d415b85acef810000000083106124e8576d04ee2d6d415b85acef810000000083816124de576124dd6133a9565b5b0492506020810190505b662386f26fc10000831061251757662386f26fc10000838161250d5761250c6133a9565b5b0492506010810190505b6305f5e1008310612540576305f5e1008381612536576125356133a9565b5b0492506008810190505b612710831061256557612710838161255b5761255a6133a9565b5b0492506004810190505b60648310612588576064838161257e5761257d6133a9565b5b0492506002810190505b600a8310612597576001810190505b80915050919050565b60008073ffffffffffffffffffffffffffffffffffffffff168373ffffffffffffffffffffffffffffffffffffffff161415801561265857508273ffffffffffffffffffffffffffffffffffffffff168473ffffffffffffffffffffffffffffffffffffffff161480612619575061261884846115fb565b5b8061265757508273ffffffffffffffffffffffffffffffffffffffff1661263f83611807565b73ffffffffffffffffffffffffffffffffffffffff16145b5b90509392505050565b6000604051905090565b600080fd5b600080fd5b6000819050919050565b61268881612675565b811461269357600080fd5b50565b6000813590506126a58161267f565b92915050565b6000602082840312156126c1576126c061266b565b5b60006126cf84828501612696565b91505092915050565b6126e181612675565b82525050565b600073ffffffffffffffffffffffffffffffffffffffff82169050919050565b6000612712826126e7565b9050919050565b61272281612707565b82525050565b60008115159050919050565b61273d81612728565b82525050565b600060a08201905061275860008301886126d8565b61276560208301876126d8565b6127726040830186612719565b61277f6060830185612734565b61278c6080830184612734565b9695505050505050565b60007fffffffff0000000000000000000000000000000000000000000000000000000082169050919050565b6127cb81612796565b81146127d657600080fd5b50565b6000813590506127e8816127c2565b92915050565b6000602082840312156128045761280361266b565b5b6000612812848285016127d9565b91505092915050565b60006020820190506128306000830184612734565b92915050565b600081519050919050565b600082825260208201905092915050565b60005b83811015612870578082015181840152602081019050612855565b60008484015250505050565b6000601f19601f8301169050919050565b600061289882612836565b6128a28185612841565b93506128b2818560208601612852565b6128bb8161287c565b840191505092915050565b600060208201905081810360008301526128e0818461288d565b905092915050565b60006020820190506128fd6000830184612719565b92915050565b61290c81612707565b811461291757600080fd5b50565b60008135905061292981612903565b92915050565b600080604083850312156129465761294561266b565b5b60006129548582860161291a565b925050602061296585828601612696565b9150509250929050565b6000806000606084860312156129885761298761266b565b5b60006129968682870161291a565b93505060206129a78682870161291a565b92505060406129b886828701612696565b9150509250925092565b60006020820190506129d760008301846126d8565b92915050565b6000602082840312156129f3576129f261266b565b5b6000612a018482850161291a565b91505092915050565b612a1381612728565b8114612a1e57600080fd5b50565b600081359050612a3081612a0a565b92915050565b60008060408385031215612a4d57612a4c61266b565b5b6000612a5b8582860161291a565b9250506020612a6c85828601612a21565b9150509250929050565b600080fd5b600080fd5b7f4e487b7100000000000000000000000000000000000000000000000000000000600052604160045260246000fd5b612ab88261287c565b810181811067ffffffffffffffff82111715612ad757612ad6612a80565b5b80604052505050565b6000612aea612661565b9050612af68282612aaf565b919050565b600067ffffffffffffffff821115612b1657612b15612a80565b5b612b1f8261287c565b9050602081019050919050565b82818337600083830152505050565b6000612b4e612b4984612afb565b612ae0565b905082815260208101848484011115612b6a57612b69612a7b565b5b612b75848285612b2c565b509392505050565b600082601f830112612b9257612b91612a76565b5b8135612ba2848260208601612b3b565b91505092915050565b60008060008060808587031215612bc557612bc461266b565b5b6000612bd38782880161291a565b9450506020612be48782880161291a565b9350506040612bf587828801612696565b925050606085013567ffffffffffffffff811115612c1657612c15612670565b5b612c2287828801612b7d565b91505092959194509250565b60008060408385031215612c4557612c4461266b565b5b6000612c538582860161291a565b9250506020612c648582860161291a565b9150509250929050565b7f4e487b7100000000000000000000000000000000000000000000000000000000600052602260045260246000fd5b60006002820490506001821680612cb557607f821691505b602082108103612cc857612cc7612c6e565b5b50919050565b6000606082019050612ce36000830186612719565b612cf060208301856126d8565b612cfd6040830184612719565b949350505050565b7f496e76616c696420746f6b656e20494400000000000000000000000000000000600082015250565b6000612d3b601083612841565b9150612d4682612d05565b602082019050919050565b60006020820190508181036000830152612d6a81612d2e565b9050919050565b7f4e6f2061637469766520657363726f7720666f72207468697320746f6b656e00600082015250565b6000612da7601f83612841565b9150612db282612d71565b602082019050919050565b60006020820190508181036000830152612dd681612d9a565b9050919050565b7f507572636861736520616c726561647920617070726f76656400000000000000600082015250565b6000612e13601983612841565b9150612e1e82612ddd565b602082019050919050565b60006020820190508181036000830152612e4281612e06565b9050919050565b7f5075726368617365206e6f7420617070726f7665642062792073656c6c657200600082015250565b6000612e7f601f83612841565b9150612e8a82612e49565b602082019050919050565b60006020820190508181036000830152612eae81612e72565b9050919050565b7f4e6f7420746865206275796572206f66207468697320746f6b656e0000000000600082015250565b6000612eeb601b83612841565b9150612ef682612eb5565b602082019050919050565b60006020820190508181036000830152612f1a81612ede565b9050919050565b7f496e636f72726563742072656d61696e696e672062616c616e63650000000000600082015250565b6000612f57601b83612841565b9150612f6282612f21565b602082019050919050565b60006020820190508181036000830152612f8681612f4a565b9050919050565b7f4e487b7100000000000000000000000000000000000000000000000000000000600052601160045260246000fd5b6000612fc782612675565b9150612fd283612675565b9250828201905080821115612fea57612fe9612f8d565b5b92915050565b7f4e6f2061637469766520657363726f7720746f2063616e63656c000000000000600082015250565b6000613026601a83612841565b915061303182612ff0565b602082019050919050565b6000602082019050818103600083015261305581613019565b9050919050565b7f4e6f7420617574686f72697a656420746f2063616e63656c0000000000000000600082015250565b6000613092601883612841565b915061309d8261305c565b602082019050919050565b600060208201905081810360008301526130c181613085565b9050919050565b600081905092915050565b60006130de82612836565b6130e881856130c8565b93506130f8818560208601612852565b80840191505092915050565b600061311082856130d3565b915061311c82846130d3565b91508190509392505050565b7f546f6b656e206e6f7420666f722073616c650000000000000000000000000000600082015250565b600061315e601283612841565b915061316982613128565b602082019050919050565b6000602082019050818103600083015261318d81613151565b9050919050565b7f496e636f7272656374206561726e65737420616d6f756e740000000000000000600082015250565b60006131ca601883612841565b91506131d582613194565b602082019050919050565b600060208201905081810360008301526131f9816131bd565b9050919050565b7f457363726f7720616c72656164792061637469766520666f722074686973207460008201527f6f6b656e00000000000000000000000000000000000000000000000000000000602082015250565b600061325c602483612841565b915061326782613200565b604082019050919050565b6000602082019050818103600083015261328b8161324f565b9050919050565b600061329d82612675565b91506132a883612675565b92508282039050818111156132c0576132bf612f8d565b5b92915050565b600081519050919050565b600082825260208201905092915050565b60006132ed826132c6565b6132f781856132d1565b9350613307818560208601612852565b6133108161287c565b840191505092915050565b60006080820190506133306000830187612719565b61333d6020830186612719565b61334a60408301856126d8565b818103606083015261335c81846132e2565b905095945050505050565b600081519050613376816127c2565b92915050565b6000602082840312156133925761339161266b565b5b60006133a084828501613367565b91505092915050565b7f4e487b7100000000000000000000000000000000000000000000000000000000600052601260045260246000fd5b60006040820190506133ed6000830185612719565b6133fa60208301846126d8565b939250505056fea26469706673582212201d4cba8821d47c6868a43f715ae11737e571c2c6383a8e7bd5c9413d356a9dc264736f6c634300081b0033",
  "linkReferences": {},
  "deployedLinkReferences": {}
}